:020000040800F2
:1000000000000220C5480008694400086B4400084D
:100010006D4400086F4400087144000800000000AF
:100020000000000000000000000000007344000811
:100030007544000800000000774400087944000877
:100040001549000815490008154900081549000818
:100050001549000815490008154900081549000808
:1000600015490008154900081549000815490008F8
:1000700015490008154900081549000815490008E8
:1000800015490008154900081549000815490008D8
:1000900015490008154900081549000815490008C8
:1000A00015490008154900081549000815490008B8
:1000B00015490008154900081549000815490008A8
:1000C0001549000815490008154900081549000898
:1000D0001549000815490008154900081549000888
:1000E0001549000815490008154900081549000878
:1000F0001549000815490008154900081549000868
:100100001549000815490008154900081549000857
:100110001549000815490008154900081549000847
:100120001549000815490008154900081549000837
:100130001549000815490008154900081549000827
:100140001549000815490008154900087D440008B4
:100150001549000815490008154900081549000807
:1001600015490008154900081549000815490008F7
:10017000154900081549000815490008000000004D
:080180001549000815490008AB
:1001900010B5054C237833B9044B13B10448AFF3C1
:1001A00000800123237010BD3003002000000000F8
:1001B0005C6A000808B5034B1BB103490348AFF361
:1001C000008008BD00000000340300205C6A0008C5
:1001D000034613F8012B002AFBD1181A0138704787
:1001E00001F0FF01102A2BDB10F0070F08D010F8E8
:1001F000013B013A8B422DD010F0070F42B3F6D1EC
:10020000F0B441EA012141EA014122F007047FF004
:1002100000070023F0E80256083C85EA010586EA5B
:10022000010685FA47F5A3FA87F586FA47F6A5FA97
:1002300087F68EB9EED1F0BC01F0FF0102F00702A3
:1002400032B110F8013B013A83EA010313B1F8D14E
:100250000020704701387047002D06BF354603382F
:10026000073815F0010F07D1013015F4807F02BF68
:10027000013015F4C03F0130F0BC0138704700BFB9
:1002800081F0004102E000BF83F0004330B54FEA47
:1002900041044FEA430594EA050F08BF90EA020FB4
:1002A0001FBF54EA000C55EA020C7FEA645C7FEA47
:1002B000655C00F0E2804FEA5454D4EB5555B8BF6A
:1002C0006D420CDD2C4480EA020281EA030382EADB
:1002D000000083EA010180EA020281EA0303362D6D
:1002E00088BF30BD11F0004F4FEA01314FF4801C40
:1002F0004CEA113102D0404261EB410113F0004F52
:100300004FEA03334CEA133302D0524263EB430308
:1003100094EA050F00F0A780A4F10104D5F1200EA6
:100320000DDB02FA0EFC22FA05F2801841F1000101
:1003300003FA0EF2801843FA05F359410EE0A5F1D5
:1003400020050EF1200E012A03FA0EFC28BF4CF006
:10035000020C43FA05F3C01851EBE37101F00045BC
:1003600007D54FF0000EDCF1000C7EEB00006EEBC9
:100370000101B1F5801F1BD3B1F5001F0CD3490853
:100380005FEA30004FEA3C0C04F101044FEA4452AA
:1003900012F5800F80F09A80BCF1004F08BF5FEA31
:1003A000500C50F1000041EB045141EA050130BD11
:1003B0005FEA4C0C404141EB010111F4801FA4F1B4
:1003C0000104E9D191F0000F04BF01460020B1FA09
:1003D00081F308BF2033A3F10B03B3F120020CDA41
:1003E0000C3208DD02F1140CC2F10C0201FA0CF01F
:1003F00021FA02F10CE002F11402D8BFC2F1200C84
:1004000001FA02F120FA0CFCDCBF41EA0C01904039
:10041000E41AA2BF01EB0451294330BD6FEA040482
:100420001F3C1CDA0C340EDC04F11404C4F120026D
:1004300020FA04F001FA02F340EA030021FA04F37F
:1004400045EA030130BDC4F10C04C4F1200220FAD6
:1004500002F001FA04F340EA0300294630BD21FA14
:1004600004F0294630BD94F0000F83F4801306BFDA
:1004700081F480110134013D4EE77FEA645C18BFCE
:100480007FEA655C29D094EA050F08BF90EA020F65
:1004900005D054EA000C04BF1946104630BD91EA5D
:1004A000030F1EBF0021002030BD5FEA545C05D160
:1004B0004000494128BF41F0004130BD14F580049F
:1004C0003CBF01F5801130BD01F0004545F0FE4113
:1004D00041F470014FF0000030BD7FEA645C1ABF48
:1004E000194610467FEA655C1CBF0B46024650EA7F
:1004F000013406BF52EA033591EA030F41F40021AB
:1005000030BD00BF90F0000F04BF0021704730B530
:100510004FF4806404F132044FF000054FF0000105
:1005200050E700BF90F0000F04BF0021704730B5C6
:100530004FF4806404F1320410F0004548BF40429B
:100540004FF000013EE700BF42004FEAE2014FEAF0
:1005500031014FEA02701FBF12F07F4393F07F4FCB
:1005600081F06051704792F0000F14BF93F07F4FFD
:10057000704730B54FF4607401F0004521F0004140
:1005800020E700BF50EA010208BF704730B54FF0C6
:1005900000050AE050EA010208BF704730B511F0CB
:1005A000004502D5404261EB41014FF4806404F103
:1005B00032045FEA915C3FF4DCAE4FF003025FEA85
:1005C000DC0C18BF03325FEADC0C18BF033202EB0D
:1005D000DC02C2F1200300FA03FC20FA02F001FA67
:1005E00003FE40EA0E0021FA02F11444C1E600BF06
:1005F00070B54FF0FF0C4CF4E06C1CEA11541DBFB9
:100600001CEA135594EA0C0F95EA0C0F00F0DEF883
:100610002C4481EA030621EA4C5123EA4C5350EA68
:10062000013518BF52EA033541F4801143F48013B9
:1006300038D0A0FB02CE4FF00005E1FB02E506F04A
:100640000042E0FB03E54FF00006E1FB03569CF09F
:10065000000F18BF4EF0010EA4F1FF04B6F5007FA5
:1006600064F5407404D25FEA4E0E6D4146EB060617
:1006700042EAC62141EA55514FEAC52040EA5E50A0
:100680004FEACE2EB4F1FD0C88BFBCF5E06F1ED84A
:10069000BEF1004F08BF5FEA500E50F1000041EB81
:1006A000045170BD06F0004646EA010140EA02002E
:1006B00081EA0301B4EB5C04C2BFD4EB0C0541EA50
:1006C000045170BD41F480114FF0000E013C00F365
:1006D000AB8014F1360FDEBF002001F0004170BD89
:1006E000C4F10004203C35DA0C341BDC04F11404A2
:1006F000C4F1200500FA05F320FA04F001FA05F22E
:1007000040EA020001F0004221F0004110EBD370FA
:1007100021FA04F642EB06015EEA430E08BF20EA26
:10072000D37070BDC4F10C04C4F1200500FA04F3C9
:1007300020FA05F001FA04F240EA020001F000415B
:1007400010EBD37041F100015EEA430E08BF20EACE
:10075000D37070BDC4F1200500FA05F24EEA020E16
:1007600020FA04F301FA05F243EA020321FA04F045
:1007700001F0004121FA04F220EA020000EBD370FC
:100780005EEA430E08BF20EAD37070BD94F0000FFC
:100790000FD101F00046400041EB010111F4801F30
:1007A00008BF013CF7D041EA060195F0000F18BFE1
:1007B000704703F00046520043EB030313F4801F1D
:1007C00008BF013DF7D043EA0603704794EA0C0FD7
:1007D0000CEA135518BF95EA0C0F0CD050EA4106ED
:1007E00018BF52EA4306D1D181EA030101F000416A
:1007F0004FF0000070BD50EA410606BF1046194692
:1008000052EA430619D094EA0C0F02D150EA01369D
:1008100013D195EA0C0F05D152EA03361CBF1046DE
:1008200019460AD181EA030101F0004141F0FE417D
:1008300041F470014FF0000070BD41F0FE4141F401
:10084000780170BD70B54FF0FF0C4CF4E06C1CEA01
:1008500011541DBF1CEA135594EA0C0F95EA0C0FB6
:1008600000F0A7F8A4EB050481EA030E52EA033571
:100870004FEA013100F088804FEA03334FF0805592
:1008800045EA131343EA12634FEA022245EA1115BF
:1008900045EA10654FEA00260EF000419D4208BF70
:1008A000964244F1FD0404F5407402D25B084FEA1D
:1008B0003202B61A65EB03055B084FEA32024FF4C9
:1008C00080104FF4002CB6EB020E75EB030E22BF26
:1008D000B61A754640EA0C005B084FEA3202B6EBE6
:1008E000020E75EB030E22BFB61A754640EA5C0095
:1008F0005B084FEA3202B6EB020E75EB030E22BF25
:10090000B61A754640EA9C005B084FEA3202B6EB25
:10091000020E75EB030E22BFB61A754640EADC00E4
:1009200055EA060E18D04FEA051545EA16754FEA46
:1009300006164FEAC30343EA52734FEAC2025FEA64
:100940001C1CC0D111F4801F0BD141EA00014FF0F3
:1009500000004FF0004CB6E711F4801F04BF0143C4
:100960000020B4F1FD0C88BFBCF5E06F3FF6AFAEE0
:10097000B5EB030C04BFB6EB020C5FEA500C50F170
:10098000000041EB045170BD0EF0004E4EEA1131F3
:1009900014EB5C04C2BFD4EB0C0541EA045170BDFA
:1009A00041F480114FF0000E013C90E645EA060E3E
:1009B0008DE60CEA135594EA0C0F08BF95EA0C0F6C
:1009C0003FF43BAF94EA0C0F0AD150EA01347FF4B4
:1009D00034AF95EA0C0F7FF425AF104619462CE78B
:1009E00095EA0C0F06D152EA03353FF4FDAE1046EE
:1009F000194622E750EA410618BF52EA43067FF43F
:100A0000C5AE50EA41047FF40DAF52EA43057FF4CE
:100A1000EBAE12E74FF0FF3C06E000BF4FF0010CD9
:100A200002E000BF4FF0010C4DF804CD4FEA410C3D
:100A30007FEA6C5C4FEA430C18BF7FEA6C5C1BD00A
:100A400001B050EA410C0CBF52EA430C91EA030F8B
:100A500002BF90EA020F0020704710F1000F91EAE8
:100A6000030F58BF994208BF90422CBFD8176FEAB6
:100A7000E37040F0010070474FEA410C7FEA6C5C84
:100A800002D150EA013C07D14FEA430C7FEA6C5C8B
:100A9000D6D152EA033CD3D05DF8040B704700BFB7
:100AA0008446104662468C461946634600E000BF05
:100AB00001B5FFF7B7FF002848BF10F1000F01BDD7
:100AC0004DF808EDFFF7F4FF0CBF012000205DF8A2
:100AD00008FB00BF4DF808EDFFF7EAFF34BF012027
:100AE00000205DF808FB00BF4DF808EDFFF7E0FFC0
:100AF00094BF012000205DF808FB00BF4DF808ED11
:100B0000FFF7CEFF94BF012000205DF808FB00BF77
:100B10004DF808EDFFF7C4FF34BF012000205DF859
:100B200008FB00BF4FEA410C7FEA6C5C02D150EA3F
:100B3000013C0AD14FEA430C7FEA6C5C02D152EAD5
:100B4000033C02D14FF0000070474FF001007047A6
:100B50004FEA410212F5001215D211D56FF47873E5
:100B6000B3EB625212D94FEAC12343F0004343EA88
:100B7000505311F0004F23FA02F018BF4042704763
:100B80004FF00000704750EA013005D111F00040ED
:100B900008BF6FF0004070474FF00000704700BF83
:100BA0004FEA4102B2F1E04324BFB3F5001CDCF18F
:100BB000FE5C0DD901F0004C4FEAC0024CEA5070C7
:100BC000B2F1004F40EB830008BF20F001007047F6
:100BD00011F0804F21D113F13872BCBF01F00040F9
:100BE000704741F480114FEA5252C2F11802C2F12B
:100BF000200C10FA0CF320FA02F018BF40F00100AC
:100C00004FEAC1234FEAD32303FA0CFC40EA0C005D
:100C100023FA02F34FEA4303CCE77FEA625307D19A
:100C200050EA01331EBF4FF0FE4040F440007047D1
:100C300001F0004040F0FE4040F40000704700BF6B
:100C400053B94AB9002908BF00281CBF4FF0FF3133
:100C50004FF0FF3000F07AB9ADF1080C6DE904CE29
:100C600000F006F8DDF804E0DDE9022304B0704787
:100C70002DE9F0478C460D460446089E002B51D1C5
:100C80008A4217466DD9B2FA82FEBEF1000F0BD030
:100C9000CEF1200C01FA0EF520FA0CFC02FA0EF748
:100CA0004CEA050C00FA0EF44FEA174A250CBCFB7F
:100CB000FAF81FFA87F90AFB18CC45EA0C4508FB3D
:100CC00009F3AB420AD9ED1908F1FF3280F0238114
:100CD000AB4240F22081A8F102083D44ED1AA4B2D3
:100CE000B5FBFAF00AFB105544EA054400FB09F98C
:100CF000A14509D9E41900F1FF3380F00A81A1452B
:100D000040F2078102383C44A4EB090440EA084061
:100D10000021002E61D024FA0EF4002334607360A9
:100D2000BDE8F0878B4207D9002E54D0002186E819
:100D300021000846BDE8F087B3FA83F1002940F0AE
:100D40008E80AB4202D3824200F2FA80841A65EBB5
:100D500003050120AC46002E3FD086E81010BDE808
:100D6000F08712B90127B7FBF2F7B7FA87FEBEF199
:100D7000000F34D1EB1B3A0C1FFA87FC0121B3FBA7
:100D8000F2F8250C02FB183345EA03450CFB08F387
:100D9000AB4207D9ED1908F1FF3002D2AB4200F2A5
:100DA000D1808046ED1AA3B2B5FBF2F002FB1055DC
:100DB00043EA05440CFB00FCA44507D9E41900F103
:100DC000FF3302D2A44500F2B8801846A4EB0C040D
:100DD00040EA08409DE731463046BDE8F087CEF155
:100DE000200405FA0EF307FA0EF720FA04F83A0C7D
:100DF00025FA04F448EA0308B4FBF2F14FEA184577
:100E000002FB11441FFA87FC45EA044501FB0CF381
:100E1000AB4200FA0EF409D9ED1901F1FF3080F070
:100E20008A80AB4240F2878002393D44EB1A1FFAB8
:100E300088F5B3FBF2F002FB103345EA034500FBF3
:100E40000CF3AB4207D9ED1900F1FF386FD2AB427A
:100E50006DD902383D44EB1A40EA01418FE7C1F1F8
:100E6000200722FA07F88B4005FA01F448EA030349
:100E700020FA07FE4FEA134CFD404EEA040EB5FB84
:100E8000FCF94FEA1E440CFB19551FFA83F844EA9B
:100E9000054509FB08F4AC4202FA01F200FA01FA36
:100EA00008D9ED1809F1FF3043D2AC4241D9A9F17C
:100EB00002091D442D1B1FFA8EFEB5FBFCF00CFB36
:100EC00010554EEA054400FB08F8A04507D9E41880
:100ED00000F1FF3529D2A04527D902381C4440EA49
:100EE0000940A4EB0804A0FB02894C45C6464D46C8
:100EF00015D312D056B1BAEB0E0364EB050404FA15
:100F000007F7CB401F43CC40376074600021BDE839
:100F1000F0871846F8E69046E0E6C245EAD2B8EB1C
:100F2000020E69EB03050138E4E72846D7E740469F
:100F300091E78146BEE7014678E702383C4445E741
:100F4000084608E7A8F102083D442BE7704700BFB8
:100F500038B50E4A0E4B054618784FF47A73B3FB3A
:100F6000F0F31068B0FBF3F000F0A8F8044658B9AD
:100F70000F2D09D8024629464FF0FF3000F05EF8E9
:100F8000044B20461D6038BD012038BD18010020EB
:100F9000000000200400002008B50B4B1A6842F442
:100FA00000721A601A6842F480621A601A6842F489
:100FB00080721A60032000F02FF80020FFF7C8FFAE
:100FC00003F07CF9002008BD003C0240034A044BBA
:100FD00011681B780B441360704700BF5C0300204E
:100FE00000000020014B1868704700BF5C03002020
:100FF00038B50446FFF7F6FF631C1CBF054B1B7892
:10100000054618BFE418FFF7EDFF401B8442FAD8ED
:1010100038BD00BF00000020074AD36823F4E06316
:101020001B041B0C43F0BF63000243F4003300F4C5
:10103000E0600343D360704700ED00E0174B30B52C
:10104000DC68C4F30224C4F10703251D042B28BF68
:101050000423062D4FF0010505FA03F303F1FF33D6
:101060008CBF033C00241940A14005FA04F4013C64
:101070002240002842EA01024FEA0212AFBF00F10B
:10108000604000F00F00064BD2B2A5BF00F56140F2
:10109000D2B21A5480F8002330BD00BF00ED00E04A
:1010A00014ED00E04209012300F01F0003FA00F0F4
:1010B000014B43F82200704700E100E00138B0F135
:1010C000807F0AD2064B074A5860F02182F823102D
:1010D0000020072298601A6070470120704700BF07
:1010E00010E000E000ED00E02DE9F04F85B00B6866
:1010F000DFF8AC81684ADFF8AC91019300234FF030
:10110000010E019C0EFA03FE0EEA0406B64540F0FD
:10111000AE804C6824F01007022F16D14FEAD30A94
:1011200000EB8A0A03F0070BDAF820504FEA8B0B2A
:101130004FF00F0C0CFA0BFC25EA0C0C0D6905FAAC
:101140000BF545EA0C05CAF820504FEA430A03257F
:10115000D0F800B005FA0AF5ED4304F0030C0BEAF1
:10116000050B0CFA0AFC013F4CEA0B0C012FC0F8EE
:1011700000C011D8876807EA050BCF6807FA0AFC98
:101180004CEA0B078760476827EA0E0EC4F3001786
:101190009F4047EA0E074760C7683D408F6807FADF
:1011A0000AF73D43C560E50061D54FF0000BCDF86F
:1011B0000CB0D8F84470394D47F48047C8F84470F3
:1011C000D8F8447007F480470397039F23F0030780
:1011D00007F1804707F59C3703F0030CD7F808A008
:1011E0004FEA8C0C4FF00F0E0EFA0CFEA8422AEAC2
:1011F0000E0E43D005F58065A84241D005F5806507
:10120000A8423FD005F58065A8423DD005F5806530
:10121000A8423BD048453BD005F50065A84239D0EF
:1012200005F58065A84214BF0825072505FA0CF5C9
:1012300045EA0E05BD601568F74314F4803F0CBF06
:101240003D4035431560556814F4003F0CBF3D40E8
:1012500035435560956814F4801F0CBF3D403543FD
:101260009560D568A40254BF3D403543D560013335
:10127000102B7FF444AF05B0BDE8F08F5D46D5E795
:101280000125D3E70225D1E70325CFE70425CDE7E4
:101290000525CBE70625C9E7003C014000000240D8
:1012A00000380240001402400AB18161704709040D
:1012B000FBE70268536913F480630DD06FF4806319
:1012C00053610423036420220023036380F83C302D
:1012D00080F83D2001207047184670472DE9F843FB
:1012E000044617469946C1F307488EB22568B8F1FF
:1012F000010F0CBF6B69AB6936EA030314BF012011
:10130000002008B9BDE8F8836B695A0512D52B682F
:1013100043F400732B606FF480636B6104232364D8
:1013200020220023236384F83C3084F83D200120F0
:10133000BDE8F8837B1CD9D04FB90023202223635A
:1013400084F83C3084F83D200320BDE8F883FFF7A3
:1013500049FEA0EB09008742C8D2EEE72DE9F84329
:10136000089E044690461F46C1F307498DB2236884
:10137000B9F1010F0CBF5B699B6935EA03030CBF30
:1013800001230023434502D00020BDE8F8837B1CE5
:10139000EDD05FB900232022236384F83C3084F829
:1013A0003D20032084F83E30BDE8F883FFF71AFEA5
:1013B000801B8742DBD2EDE770B504460D4616462A
:1013C00023685B691B0601D5002070BD2046FFF72E
:1013D00070FFA8B96A1CF3D065B9236C43F02003F1
:1013E000236420220023236384F83C3084F83D20CA
:1013F000032070BDFFF7F6FD801B8542E0D2ECE7CD
:10140000012070BD70B504460D461646206843693C
:1014100013F0400301D0002070BD4269D2060BD505
:101420006FF0100242612022236484F83C30236371
:10143000012084F83D2070BD5DB9236C43F020038A
:101440002364202384F83D30002384F83C300320BB
:1014500070BDFFF7C7FD801B8542D7D2EDE770B5A1
:1014600004460D46164623685B695B0701D50020DC
:1014700070BD2046FFF71DFFA8B96A1CF3D065B9FF
:10148000236C43F02003236420220023236384F889
:101490003C3084F83D20032070BDFFF7A3FD801B86
:1014A0008542E0D2ECE7012070BD000070B5044633
:1014B000002862D090F83D3003F0FF021BB980F89D
:1014C0003C2002F01BFF22682D4E2E4D242384F871
:1014D0003D30136823F00103136001F08BFB636858
:1014E0002268B0FBF5F5B34284BF4FF496716943AF
:1014F000556091BF691C4FF47A75B1FBF5F101316C
:10150000B342116221D85B00B0FBF3F0C0F30B03D0
:10151000032B98BF0420216AE369D0610B43136059
:10152000E16823690B439360A16963690B43D3604E
:10153000136843F00103136000202023206484F823
:101540003D30206384F83E0070BDA16849B903EBCB
:101550004303B0FBF3F0C0F30B0363B140F400406E
:10156000D9E719214B43B0FBF3F0C0F30B0313B1E0
:1015700040F44040CFE70120CDE7012070BD00BF1F
:10158000A086010040420F002DE9FF4104461F469E
:101590000D469046FFF726FD94F83D30202B064679
:1015A00004D00225284604B0BDE8F081009019233C
:1015B00001225D492046FFF7D1FE0028F1D194F8C1
:1015C0003C30012BEDD0012384F83C3023681A68AD
:1015D000D2075EBF1A6842F001021A601A6822F44C
:1015E00000621A60212284F83D20102284F83E20F7
:1015F00000222264A2F580326785E262628D228534
:10160000E26AC4F82480042A04D0012A02D012F528
:10161000803F04D11A6842F480721A6002E0226BA3
:10162000122AF7D000960A9B00224FF001112046A3
:10163000FFF794FE28BB23692268B3F5804F12D1CF
:1016400005F0FE05156133460A9A38492046FFF732
:1016500045FE0546A0B9236803905A6903929B6929
:101660000393039B50E0EB1103F0060343F0F003F8
:1016700013612F490A9A33462046FFF72FFE48B1DF
:10168000236C236C042B4FF0000307D184F83C300B
:10169000012587E72368EDB21D61D4E784F83C306B
:1016A00003257FE732460A992046FFF785FE40B1C1
:1016B000236C042BF4D12268136843F40073136085
:1016C000E6E7616A2068228D4B1C63620B78036138
:1016D000638D013B9BB263854769531E9BB27F07B5
:1016E00023850AD54BB18B1C63624B780361638DF4
:1016F000013B9BB2023A6385228532460A99204615
:10170000FFF7ADFE0028D3D1238D002BCAD121686D
:101710000A6842F400720A60202284F83D2084F8AE
:101720003C3084F83E303DE702001000020001002A
:10173000080001002DE9F043044689B098460D46A3
:101740009146109FFFF74EFC94F83D30202B064643
:1017500004D00225284609B0BDE8F0830090192383
:1017600001229C492046FFF7F9FD0028F1D194F8A9
:101770003C30012BEDD0012384F83C3023681A68FB
:10178000D2075EBF1A6842F001021A601A6822F49A
:1017900000621A60222284F83D20102284F83E2044
:1017A00000222264A2F58032A4F82A80E262628DCF
:1017B0002285E26A1968C4F8249041F48061042A01
:1017C000196004D0012A02D012F5803F04D11A68B2
:1017D00042F480721A6002E0226B112AF7D0009660
:1017E0003B4600224FF001112046FFF7B7FD0028CD
:1017F0004AD12369B3F5804F236836D145F00105FE
:10180000EDB21D6133463A4673492046FFF766FD47
:101810000546002837D1228D2368002A66D0012A88
:1018200077D11A6822F480621A6004955A6904928A
:101830009A690492049A1A6842F400721A60DFF8F6
:10184000A081238D002B5BD0032B00F2CB80012BDA
:101850007AD1324639462046FFF7D4FD002800F001
:101860009080236C202B16D13EE04FEAE51808F05B
:10187000060848F0F0021A61584933463A462046B5
:10188000FFF72CFD48B1236C236C042B4FF00003B1
:1018900028D184F83C3001255CE723684E49EDB23D
:1018A0001D613A4633462046FFF718FD02460028E0
:1018B000E9D12368079059690791996907910799B8
:1018C000196841F480711960204600963B464FF03C
:1018D0000111FFF743FD0028D6D1226848F0F1033B
:1018E00013618FE784F83C30032533E703955A6989
:1018F00003929A690392039A1A6842F400721A607A
:10190000202384F83D30002384F83E3084F83C30B6
:1019100020E7022A1A680DD122F480621A601A6840
:1019200042F400621A6005955A6905929B69059315
:10193000059B84E742F480621A6006955A69069214
:101940009B690693069B7AE7022B00963B464FF075
:1019500000024146204622D1FFF700FD0028C3D1F6
:1019600023681A6842F400721A60626A1B69511C8B
:1019700061621370238D013B2385638D013B9BB214
:101980006385636A5A1C6262226812691A70238D29
:10199000013B2385638D013B9BB2638551E7FFF7D4
:1019A000DDFC024600289FD12368196821F480617C
:1019B0001960616A1B69481C60620B70238D009678
:1019C000013B2385638D013B9BB2638541463B46CA
:1019D0002046C1E7020010000200010008000100DB
:1019E00004000100324639462046FFF70BFD00286F
:1019F0007FF437AF636A5A1C6262226812691A70F8
:101A0000238D2268013B2385638D013B9BB2638557
:101A100053695B077FF515AF636A591C6162B4E7D0
:101A2000704770477047000070B5044600283FD0EB
:101A30000225414B80F84150436302F097FC226835
:101A4000D36923F47B6323F00F03D36163691562C9
:101A5000022BD56935D0E368002BA36814BF20267C
:101A600010260120202B98BF760001F06BF9236926
:101A70006169B3F5007F1FD1E3680A22D3B1B300D7
:101A8000B0FBF3F353430A22B3FBF1F30533B3FB8B
:101A9000F2F303F001021202C3F34F03991EFD2972
:101AA00011D9636C43F0100363642046FFF7BAFF5B
:101AB000012070BDF300E3E70A23B0FBF6F04343D7
:101AC000E1E70022EAE713432269206866681343CE
:101AD0000362E268A3681343A26913439BB246F40E
:101AE00000611943226A89B20D43012AC5611CD1E4
:101AF000124A62631249134A884218BF4FF04022CB
:101B000036F40070D16921F47B6121F00F01D161BD
:101B10004FF002011162D1690CBF4FF480700020B8
:101B200043F4006303430B43D3610020012360644B
:101B300084F8413070BD00BF491B0008551C0008E7
:101B400000380040003400401FB503689A680192D5
:101B500090F84120042A04463AD1019AD10719D5B8
:101B60005A68520616D5C26A911CC162D9681180A2
:101B7000428E013A92B24286428E92B252B95A686D
:101B800022F060021204120C5A60012380F84130E6
:101B9000FFF747FF019B59061AD523685A6892063A
:101BA00016D55A6822F060021204120C5A60002204
:101BB0000292DA6802929B680293029B012384F8E6
:101BC0004130636C43F0020363642046FFF72AFF51
:101BD00094F84130032B3AD1019B9B071BD5226817
:101BE0005368180617D5636A991C1B886162D36015
:101BF000638D013B9BB26385638D9BB25BB9536878
:101C000023F0A0031B041B0C5360012384F8413014
:101C10002046FFF705FF019B190718D523685A686E
:101C2000920614D55A6822F0A0021204120C5A60CF
:101C3000002203929B680393039B012384F84130A5
:101C4000636C43F0040363642046FFF7EBFE04B0CB
:101C500010BD70471FB5036892499A680092924A76
:101C60008B4218BF4FF04022044691680191D96918
:101C700001F44071B1F5007F04D0D96911F4407FBF
:101C800040F09780009A92071DD55A6810061AD521
:101C9000626A911C12886162DA60628D013A92B2C6
:101CA0006285628D92B272B95A6822F0A002120463
:101CB000120C5A60638E9BB22BB9012384F8413019
:101CC0002046FFF7C6FF019BD90722D5754A216838
:101CD000754B914218BF4FF040235A68520618D5F1
:101CE000E26A911CE162D9681180628E013A92B277
:101CF0006286628E92B262B95A6822F060025A60BD
:101D0000638D9BB22BB9012384F841302046FFF745
:101D1000A0FF019B580624D562492368624A8B4282
:101D200018BF4FF04022516889061AD5516821F03A
:101D3000600151605A6822F0A0021204120C5A602D
:101D400000220292DA6802929B680293029B0123AE
:101D500084F84130636C43F0020363642046FFF76C
:101D600061FE009B1B0722D523685A6890061ED58A
:101D70005A684C4922F0A0021204120C5A604A4AD6
:101D80008B4218BF4FF04022516821F06001516032
:101D9000002203929B680393039B012384F8413044
:101DA000636C43F0040363642046FFF73BFE04B01A
:101DB00010BD019B99071AD553681B0617D5436AB6
:101DC000991C1B884162D360438D013B9BB24385C4
:101DD000438D9BB25BB9536823F0A0035360438EDD
:101DE0009BB223B9012380F84130FFF732FF009BFB
:101DF000D8071ED52268536859061AD5E36A991C7C
:101E0000E162D1681980638E013B9BB26386638E69
:101E10009BB273B9536823F060031B041B0C53601F
:101E2000638D9BB22BB9012384F841302046FFF724
:101E300010FF009B5A061DD5226853689B0619D5D2
:101E40005368184923F060031B041B0C5360164BA6
:101E50008A4218BF4FF0402320465A6822F0A00261
:101E60005A60012384F84130636C43F002036364D9
:101E7000FFF7D8FD019B180799D50A4922680A4B3C
:101E80008A4218BF4FF04023596889068FD5596898
:101E900021F0A0015960536823F060031B041B0C60
:101EA00053607AE70038004000340040F0B5064641
:101EB0008BB0002864D00323344680F8B93302F095
:101EC00061FB54F8100B00F0E8FF0FCC6D460FC516
:101ED0000FCC0FC594E8030085E80300371D97E891
:101EE0000E00306800F099FF0021306800F0DBFF41
:101EF00000213346324606F110040125084682F8D7
:101F00003810D18701310F2982F8395082F83B000F
:101F100010645064D06402F11C02F0D10022D6F8A3
:101F200000E0114602F1400083F8F821DA870EEB59
:101F3000800001320F2A83F8F91183F8FB11C3F8EE
:101F40000012C3F80412C3F80C12416003F11C0321
:101F5000E8D10FCC6D460FC50FCC0FC594E8030038
:101F600085E80300704697E80E0000F0B3FF0123F8
:101F700086F8B933306801F0D0FA00200BB0F0BD1C
:101F80000120FBE790F8B833012B10B504460CD0C4
:101F9000012380F8B833006801F0B3FA206800F03C
:101FA00076FF002084F8B80310BD022010BD0000A9
:101FB0002DE9F04FD0F8009087B00446484601F074
:101FC000E6FA0290002840F02E81206801F0B1FA74
:101FD000002800F02881206801F0ABFA850748BF8F
:101FE0002268206842BF536903F00203536101F085
:101FF000A0FA10F400250AD0206801F09EFA09F535
:1020000030660746A2460025002F40F00F81206869
:1020100001F08FFA41030BD5206801F096FA2646AD
:10202000039009F510680025039B002B40F03F81C9
:10203000206801F07EFA00280DDAD9F8043823F080
:102040000103C9F80438204602F01AFB22685369DC
:1020500003F000435361206801F06BFA06050BD5CD
:10206000D9F80838D80702D5204602F0F1FA2268DC
:10207000536903F400635361206801F05AFAC10404
:1020800037D509F500667368206823F00103736093
:10209000102100F0BBFF616809F51063FF22029870
:1020A000884240F092814FF0FF33B361F36943F00F
:1020B0000113F361236B002B00F08F81D6F884307D
:1020C00043F00B03C6F88430736C43F00B03736466
:1020D000D9F80038217C206823F4FE63C9F8003861
:1020E00004F56F7201F072FA2268536903F48053A9
:1020F0005361206801F01DFA82041DD5206801F0AB
:102100004AFA2068C36823F47053C36000F0A7FF45
:10211000002840F06B812268E0604FF40073636137
:10212000D36843F41053D360204602F080FA22684B
:10213000536903F400535361206801F0FAF9C306B0
:102140002BD52268936923F010039361D9F820609E
:10215000C6F34343022B06F00F0840F0A88147F670
:10216000F0731E4214D01C2707FB0847C6F30A165B
:102170003246D7F80412484601F06DF9D7F8043218
:102180003344C7F80432D7F810321E44C7F810623F
:102190002268936943F010039361206801F0C9F944
:1021A000070707D5204602F03EFA2268536903F07C
:1021B00008035361206801F0BCF9C60208D5E9B2F2
:1021C000204602F065FA2268536903F480135361D4
:1021D000206801F0AEF9800208D5E9B2204602F08D
:1021E00053FA2268536903F400135361206801F025
:1021F000A0F9410007D5204602F04EFA2268536943
:1022000003F080435361206801F093F942070AD537
:1022100023685D686B0702D5204602F041FA236807
:102220005A6815435D6007B0BDE8F08FF80738D5F0
:102230005FFA85FB5946206801F08FF910F0010F15
:10224000804621D0216901239942B3600CD13169C4
:10225000DAF80002C1F31201411ACAF81012DAF8D2
:1022600004120844CAF804025946204602F0CAF98A
:102270002169012908D13DB9D4F80C2222B904F50D
:102280006F72206801F0A2F918F0080F04D0204600
:1022900002F0B2F90823B36018F0100F1CBF10232E
:1022A000B36001357F0820360AF11C0AACE6039BB7
:1022B000DA0758D55FFA85FB5946206801F057F9CF
:1022C000C307074620D5D9F834380121A94023EAAD
:1022D0000103C9F834380123C8F808302369012BF9
:1022E00001BF736C326C9B1873645946204602F030
:1022F00092F92169012907D135B9E36C23B904F5B5
:102300006F72206801F062F9380744BF0823C8F8EB
:102310000830F90644BF1023C8F808307A0644BFD5
:102320004023C8F80830BB0744BF0223C8F8083070
:102330003F0618D523680493F76C336DFF1A336C8E
:102340009F4228BF1F46049B03F5106307F1030A51
:1023500003EB45134FEA9A0A0593059B9B699BB2D1
:10236000534508D82FB3039B5B08013503931C36F4
:1023700008F1200858E6326DF36C9342F2D9002B35
:10238000F0D0376C04989B1A9F4228BF1F46237CCD
:1023900000935A46BBB2716C01F049F8736C3B4430
:1023A0007364336D07F1030A3B444FEA9A0A3365BD
:1023B000D3E7049B012203F5006BD3F83438AA401D
:1023C00023EA0203CBF83430CDE702989A6001305B
:1023D000C3F808220290203361E6736943F00B03CF
:1023E0007361336943F00B03336171E60323E360E8
:1023F0004023636100F0F8FB344B354A03449342B9
:10240000236804D8DA6842F47052DA608CE6314A04
:10241000314902448A4203D8DA6842F46052F4E750
:10242000A0F574022D49A2F510528A4203D8DA6849
:1024300042F45052E9E7A0F183722949A2F5E7423C
:102440008A4203D8DA6842F44052DEE7254A264938
:1024500002448A4203D8DA6842F43052D5E7234A6C
:10246000234902448A4203D8DA6842F42052CCE776
:10247000204A214902448A4203D8DA6842F41052C1
:10248000C3E7A0F1B7721D49A2F558528A4203D89A
:10249000DA6842F40052B8E7194A1A4902448A42FB
:1024A000DA6894BF42F4E05242F4C052ADE7062B22
:1024B0007FF46EAE082204F56F7148461C2700F0C9
:1024C000CAFF07FB0847C6F30A165CE6405327FF1E
:1024D000FF340C00401E1BFF3F420F007F4F1200D5
:1024E0001FD6130060B6E5FE5FE3160000D3CEFEF4
:1024F0003F771B00C05BB3FEBF9121001F75380002
:10250000E05459FEDF9C410090F8B833012B10B520
:10251000044609D0012380F8B833006800F0E1FFD9
:10252000002084F8B80310BD022010BD70B54EB273
:10253000002E04464FF01C0501F07F00B5BF05FBDF
:10254000004105FB0141383101F5FC71C0B2002E9C
:10255000B8BFC880022BCB704FEAD67504BF0023EA
:102560000B7108704D7094F8B8338A60012B09D054
:10257000012384F8B833206800F08CFD002084F833
:10258000B80370BD022070BD4BB2002B10B54FF0E8
:102590001C02044601F07F00B5BF02FB004102FBB4
:1025A0000141383101F5FC71DB0F08704B7094F874
:1025B000B833012B09D0012384F8B833206800F028
:1025C000A8FD002084F8B80310BD022010BD38B566
:1025D00001F07F051C2404FB050104FB050401F543
:1025E000FC71C4F80C320023C4F80422C4F8103281
:1025F00084F8F93184F8F85103690068012B08BFA9
:10260000C4F80822DAB21DB900F0A4FE002038BDDB
:1026100000F0DAFDFAE71C2301F00F0103FB0101D2
:10262000B1F81002704738B501F07F051C2404FB97
:10263000050104FB05043831E3640023236501230D
:10264000626484F8393084F8385003690068012BDB
:1026500008BFA264DAB21DB900F07CFE002038BDCC
:1026600000F0B2FDFAE738B54BB2002B01F07F0560
:102670004FF01C02B5BF02FB050102FB010138311E
:1026800001F5FC710122DB0FEDB28A700D704B7009
:1026900090F8B833934204460FD080F8B82300680E
:1026A00000F0E7FE2DB904F56F72217C206800F080
:1026B0008DFF002084F8B80338BD022038BD38B53E
:1026C0004BB2002B05464FF01C0201F07F00B5BF56
:1026D00002FB005102FB0151383101F5FC71DB0FA7
:1026E00000248C7008704B7095F8B833012B09D01A
:1026F000012385F8B833286800F0DAFE85F8B8437E
:10270000204638BD022038BD006870B5436A21B943
:1027100043EA02438362002070BD846A002503EB14
:1027200014434E1EECB2B44205F1010506DB3F3105
:1027300000EB810043EA02434360ECE7403400EBE6
:102740008404646803EB1443ECE7036800205962D7
:10275000704700002DE9F341044618B9012002B08A
:10276000BDE8F0810368DD0710D42368980758D4CA
:1027700023681A0700F19A8023685B0700F1B8808C
:10278000A269002A40F019810020E8E7A64B9A6868
:1027900002F00C02042A07D09A6802F00C02082A00
:1027A0000AD15B68590207D59F4B1B689A03DCD599
:1027B0006368002BD9D1D1E763689B4DB3F5803FA7
:1027C00011D12B6843F480332B60FEF70BFC964D40
:1027D00006462B689B03C8D4FEF704FC801B6428C4
:1027E000F7D90320BBE7B3F5A02F04D12B6843F43E
:1027F00080232B60E5E72A6822F480322A602A6869
:1028000022F480222A60002BDFD1FEF7EBFB064684
:102810002B689F03A9D5FEF7E5FB801B6428F7D939
:10282000DFE7814B9A6812F00C0F07D09A6802F02C
:102830000C02082A11D15B685E020ED47A4B1A682A
:10284000950702D5E268012A88D11A68216922F029
:10285000F80242EAC1021A608AE7E268734BB2B139
:1028600001221A60FEF7BEFB6F4D06462B689807E3
:1028700007D52B68226923F0F80343EAC2032B60D3
:1028800076E7FEF7AFFB801B0228EFD9A9E71A60B5
:10289000FEF7A8FB644D06462B6899077FF568AFE5
:1028A000FEF7A0FB801B0228F6D99AE76269604B0D
:1028B0007AB101221A60FEF795FB5B4D06466B6FFD
:1028C0009F073FF559AFFEF78DFB801B0228F6D915
:1028D00087E71A60FEF786FB534D06466B6F980735
:1028E0007FF54AAFFEF77EFB801B0228F6D978E71A
:1028F0004D4B1A6C12F0805228D101921A6C42F0A2
:1029000080521A641B6C03F080530193019B0126D3
:10291000484D2B68D9051BD5A368434D012B27D102
:102920002B6F43F001032B67FEF75CFB3E4D074620
:1029300041F288382B6F9B0739D5002E3FF420AF2A
:10294000394A136C23F08053136419E70026DFE73C
:102950002B6843F480732B60FEF744FB07462B681B
:10296000DA05D9D4FEF73EFBC01B0228F7D938E7B9
:10297000052B04D12B6F43F004032B67D0E72A6F9C
:1029800022F001022A672A6F22F004022A67002B34
:10299000CAD1FEF727FB41F2883807462B6F98070C
:1029A000CBD5FEF71FFBC01B4045F7D919E7FEF753
:1029B00019FBC01B4045BDD913E71B4DAB6803F0A5
:1029C0000C03082B3FF4CAAE1B4E0023022A3360CF
:1029D00034D1FEF707FB07462B6899011ED4226A03
:1029E000E3691343626A43EA8213E26A43EA0263D9
:1029F000A26A0D4C5208013A43EA02436B6001237C
:102A00003360FEF7EFFA054623689A013FF5BCAE46
:102A1000FEF7E8FA401B0228F6D9E2E6FEF7E2FAF2
:102A2000C01B0228D8D9DCE600380240000047422B
:102A3000800E47420070004060004742FEF7D2FA25
:102A400004462B689B017FF59FAEFEF7CBFA001B77
:102A50000228F6D9C5E600BF134908B58B6803F014
:102A60000C03042B03D0082B03D0104808BD1048DA
:102A700008BD4A684B68496813F4800314BF0C48CA
:102A80000A48C1F3881118BF002302F03F02A1FBDE
:102A90000001FEF7D5F8044B5B68C3F30143013333
:102AA0005B00B0FBF3F008BD003802400024F400E6
:102AB00000127A002DE9F0410D46044610B90120BC
:102AC000BDE8F081444B1A6802F00F028A4228D315
:102AD00021688F072DD4C80740D43F4B1A6802F0F5
:102AE0000F02954266D3226851076CD4130707D5AD
:102AF0003A4A2169936823F4604343EAC10393602F
:102B0000FFF7AAFF354B364A9B68C3F30313D35C28
:102B1000D840344B18600020FEF71AFA0020BDE8B8
:102B2000F081CAB21A701B6803F00F039942C6D134
:102B3000CEE72A4B11F0040F1EBF9A6842F4E05210
:102B40009A600E0742BF9A6842F460429A609A689F
:102B5000A06822F0F00202439A60BCE762681F4B53
:102B6000012A1DD11B6813F4003FA8D01B4EB36887
:102B700023F003031343B360FEF734FA41F28838BD
:102B80000746B368626803F00C03B3EB820FA4D06E
:102B9000FEF728FAC01B4045F3D90320BDE8F081B9
:102BA000911E01291B6802D813F0007FDDE713F0A6
:102BB000020FDAE7EAB21A701B6803F00F039D42B6
:102BC0007FF47DAF8FE70549E0688B6823F4E0531D
:102BD00003438B608AE700BF003C0240003802409C
:102BE000C96A000818010020014B1868704700BF2F
:102BF00018010020044B054A9B68C3F38223D35C71
:102C0000034A1068D840704700380240D96A00086B
:102C100018010020036813F0050FF7B5054605D12C
:102C2000286810F0020028D103B0F0BD414C424E9C
:102C300000232360FEF7D6F9074633681B0115D43D
:102C4000AB686A681B0743EA8213C6F88430012325
:102C50002360FEF7C7F9384C064623681801DFD415
:102C6000FEF7C0F9801B0228F7D904E0FEF7BAF995
:102C7000C01B0228E1D90320D6E7002301932E4B85
:102C80002E4C1A6C42F080521A641B6C03F0805375
:102C90000193019B236843F480732360FEF7A2F93C
:102CA00006462368D9051BD5234C236F13F44073C4
:102CB0001CD1EB6803F44072B2F5407F1E4A34D158
:102CC000916823F0704021F4F81120F44070014322
:102CD0009160116FC3F30B030B4313670020A3E74D
:102CE000FEF780F9801B0228DBD9C4E7EA6802F40A
:102CF00040729342DDD0236F114A0121116023F409
:102D00004073002111602367236FDA07D1D5FEF7E6
:102D100069F941F288370646236F9B07C9D4FEF74D
:102D200061F9801BB842F7D9A5E7916821F4F81141
:102D3000CEE700BF68004742003802400070004004
:102D4000400E4742012820D1114B9A6812F400022C
:102D500004D0012A0F4818BF002070475A680C4958
:102D600058685302D1F884204CBF0B4B0B4B00F03A
:102D70003F00B3FBF0F3D1F88400C2F38812534351
:102D8000C0F30270B3FBF0F070470020704700BF43
:102D9000003802400080BB0000127A000024F400DA
:102DA00010B50446002836D00023836290F85130D5
:102DB00003F0FF021BB980F8502001F021FB2168CD
:102DC000A068A269022384F851300B6823F0400305
:102DD0000B6063680343E068034320690343606951
:102DE0000343E0690343206A0343A06A034302F4F8
:102DF000007003430B60120C636A02F004021A4372
:102E00004A60CB6923F40063CB6100200123606535
:102E100084F8513010BD012010BD84B038B505AD27
:102E200085E80E000A9B012B044626D1836B23F410
:102E300080338363C36823F4840323F04003C360B7
:102E4000C36823F44013C360119B012B02BFC36806
:102E500043F48013C36000F0DDFB089B012B07D116
:102E6000A36843F00603A360A36843F02003A360B4
:102E7000BDE83840002004B07047C36843F0400309
:102E8000C36000F0C7FB4FF48033A363E5E78368BA
:102E900043F00103836000207047836823F001033F
:102EA00083600020704708B5C368012923F0C04340
:102EB000C36008D1C36843F00053C3603220FEF7FB
:102EC00097F8002008BD0029F8D1C36843F080437B
:102ED000C360F3E784B02DE9F041044607A880E819
:102EE0000E00119E0A9FA36B8846A6B943F40013F7
:102EF000A3630023C4F8003ED4F80038C4F80038B7
:102F00000C9B012B04F500655ED1099939B9204667
:102F100000F09EF807E043F40023A363E9E71946B5
:102F2000204600F095F81021204600F06FF820466A
:102F300000F07EF800234FF0FF322B6119466B61E1
:102F40004FF09040AA614FF0FF0EEB6104F5106264
:102F500043453BD1002104F5306208464FF0904EC6
:102F60004FF0FF0C8B423ED12B69012F23F480736D
:102F70002B6108D1234B2B632B6B43F4803343F03D
:102F800003032B632B6B0023A3616FF0804363610A
:102F90001FB9A36943F01003A361A2691A4B13433D
:102FA000A3610D9B1BB1A36943F00803A361012E2C
:102FB00001BFA36943F0804343F00403A361BDE86C
:102FC000F041002004B070470321A0E7D2F800C010
:102FD000BCF1000FB4BF1060116001331161C2F881
:102FE00008E02032B4E7D2F80080B8F1000FB4BF97
:102FF000C2F800E0106001311061C2F808C0203250
:10300000B0E700BF0001800000383C80890141F03A
:103010002001064A0161013A05D0036913F020033B
:10302000F9D1184670470320704700BF410D0300D7
:103030001023064A0361013A05D0036913F0100317
:10304000F9D1184670470320704700BF410D0300B7
:10305000D0F800381943C0F800180020704700F578
:103060000062D0F8080810F0060012D0936803F050
:103070000603022B0CD0936803F00603062B07D03F
:10308000936803F00603042B14BF0020022070474E
:103090000320704730B54B780C78D0F81C5800F5F9
:1030A0000062012B1BD1A3409BB22B4300F51060A3
:1030B000D36100EB44131A6812040ED48A68C878EE
:1030C0001D68C2F30A0242F0805242F4004242EA12
:1030D000804040EA845028431860002030BD4FF4FF
:1030E0008033A34000F530602B4300EB4410D361E4
:1030F00003681B04F1D48B68C9780268C3F30A0320
:1031000043F0805343F4004343EA81431343036095
:10311000E3E700F001B8000070B54B78012B0E46D4
:10312000054609784FF0200326D100F5106213FB05
:1031300001231A6822F400421A604FF000621A60FC
:103140004FF080421A601F4A013A01D1032070BD3E
:103150009C6814F08044F7D110212846FFF756FFF1
:103160003178D5F81C2801238B409BB222EA030357
:10317000C5F81C38204670BD00F5306213FB0123F2
:103180001A6822F400421A604FF000621A604FF091
:1031900080421A600B4A013AD8D0986810F01000AB
:1031A000F9D1D5F8043843F48063C5F80438D5F86C
:1031B0001C384FF480328A4023EA0203C5F81C38D9
:1031C00070BD00BF410D0300F7B54B780C78012BA3
:1031D0004B6977D1202600F5106516FB045426694B
:1031E000002B38D126F0FF5626F4C016266126693A
:1031F00046F4002626612669F60CF6042661012AAB
:1032000050D10C780E6905EB44146661CE78012E1E
:103210000FD1D0F808480F7814F4807F4FF02004C5
:1032200014FB075427680CBF47F0005747F080573E
:1032300027600F7805EB4715012E2C6844F00444F5
:103240002C6005D100929BB23A46C96800F0EFF8B5
:10325000002003B0F0BDF60CF604266126698F68E5
:1032600026F0FF5626F4C0162661DE19013EB6FB95
:10327000F7F7374ED4F810E006EAC74646EA0E06DE
:1032800026612769C3F312063E432661CE78012EDC
:103290005AD1266926F0C0462661266946F00056B6
:1032A0002661ACE7CE78012EB3D0002BAED091F8DA
:1032B00000E0D0F83478012404FA0EF43C43C0F85E
:1032C0003448A3E700F5306505EB44142569ED0C9F
:1032D000ED042561256925F0FF5525F4C01525610C
:1032E0008D68FBB92369C5F312051D432561236968
:1032F00043F400232361012A04BFCB686361CB78C8
:10330000012B0AD1D0F8083813F4807F23680CBF52
:1033100043F0005343F080532360236843F0044399
:10332000236095E70A4E27692B44013BB3FBF5F375
:1033300006EAC3463E4326619BB226695D43C5F358
:10334000120535432561D6E7012AAED159E700BF02
:103350000000F81F4B78012B70B50B784D6943D1F5
:10336000202400F5106614FB03631C69CDB924F01A
:10337000FF5424F4C0141C611C6944F400241C6133
:103380001C69E40CE4041C610D7806EB4513012A6A
:103390001C6844F004441C601BD10A695A61002077
:1033A00070BDE40CE4041C611C6924F0FF5424F497
:1033B000C0141C618C68A54288BF4C611C6944F430
:1033C00000241C614C691D69C4F312042C431C6168
:1033D000DAE74B69002BE2D0D0F834280123AB4068
:1033E0001343C0F83438DAE700F5306000EB4310DF
:1033F0000369DB0CDB040361036923F0FF5323F44F
:10340000C01303618B6805B14B61046944F4002467
:1034100004610469C3F312032343012A036104BF57
:10342000CB684361036843F004430360B7E710B51A
:103430009DF808404CB9033300F5805023F0030396
:1034400000EB02320B44994201D1002010BD51F82B
:10345000040B1060F7E7033222F003020A4400F580
:103460008050914201D108467047036841F8043BFF
:10347000F7E74B780A78012B4FF020030BD100F5CA
:10348000106013FB02000368002B0BDB036823F0C2
:103490008043036006E000F5306013FB0200036820
:1034A000002BF3DA036843F4001303600020704735
:1034B0004B780A78012B0CBF00F5106000F53060E6
:1034C000202313FB0200036823F400130360CB786E
:1034D000023B012B9EBF036843F080530360002032
:1034E0007047D0F8003823F4FE63C0F80038D0F8F5
:1034F0000038090101F4FE611943C0F800180020EA
:10350000704708B5D0F8043823F00203C0F8043837
:103510000320FDF76DFD002008BD08B5D0F8043884
:1035200043F00203C0F804380320FDF761FD0020DA
:1035300008BD4269806910407047D0F8183800F51E
:103540000060C0691840000C7047D0F8183800F5CA
:103550000060C069184080B2704700F5306303EB2B
:10356000411100F500608A6840691040704710B54D
:10357000D0F81048D0F8343800EB4110CB4000F5BB
:103580001060DB018068DBB22343184010BD406946
:1035900000F001007047D0F8003923F4FF6323F0F6
:1035A0000703C0F8003900F500639A6802F00602CC
:1035B000042A02BFD0F8002942F00302C0F8002913
:1035C0005A6842F480725A600020704710B5002497
:1035D000C0F8104BD0F8104B44F40024C0F8104B46
:1035E000D0F8104B44F01804C0F8104BD0F8104B32
:1035F000012900F5306344F0C04408BF4FF0802338
:10360000C0F8104B04BFC0F8142BC0F8003B0020DA
:1036100010BD00000A4B013B01D103207047026935
:10362000002AF8DA0369064A43F001030361013A0C
:10363000F3D0036913F00103F9D11846704700BFB6
:10364000410D0300D0F818321BB10020C3F814025A
:10365000704702207047D0F81C3210B5D0F81842DD
:103660005BB194F80002FF2807D09B6894F8012210
:1036700021469847FF2384F80032002010BD000047
:103680004323038000487047400000204323038009
:10369000004870478400002043230380004870479F
:1036A000D40000200A23038000487047C80000208F
:1036B00038B50546D0F8184201F0ACF8D5F8183204
:1036C000C4F80C024BB1D5F81C32D4F80402DB6804
:1036D00004F503719847002038BD022038BD000072
:1036E000F8B50F7817F0600306460C4623D0202B60
:1036F00019D1CA884B78C2B13906D0F818520BD507
:10370000D0F81C1218468F682946B847E288294627
:10371000304600F09AFB06E085F8003285F8012279
:10372000294600F0A7FB0020F8BDD0F81C028468F1
:103730001846A047F7E74B780A2BF4D1012201493C
:10374000E7E700BF4C03002010B58121044600F0DC
:10375000F9FF0121204600F0F5FF8221204600F00C
:10376000F1FFD4F8183253B1D4F81C325B68984793
:10377000D4F8180201F0FCF80023C4F81832002035
:1037800010BDF8B5037C04467BBB4FF400730222E6
:10379000812100F0C7FF4FF400730222012120466F
:1037A00000F0C0FF082303228221204600F0BAFF68
:1037B0004FF4077001F0D4F80646C4F8180220B39D
:1037C000D4F81C321B689847277C0025C6F8145291
:1037D000C6F8185287B94FF40073D6F804220121B5
:1037E000204601F009F83846F8BD40230222812125
:1037F00000F098FF4023D0E74023D6F804220121AF
:10380000204600F0F9FF2846F8BD0120F8BD19B1A7
:10381000C0F81C120020704702207047D0F8183200
:103820000020C3F80812C3F810227047D0F81832ED
:103830000020C3F804127047D0F8182210B572B1F6
:10384000D2F81442012364B9C2F814328121B2F8CB
:103850001032D2F8082200F0C1FF204610BD02202D
:1038600010BD184610BDD0F8182210B562B1047C06
:1038700044B94FF40073D2F80422012100F0BCFFD8
:10388000002010BD4023F6E7022010BD08B580B12E
:10389000D0F8143213B10023C0F8143209B1C0F8C3
:1038A0001012012380F8FC31027000F0FDFE0020B0
:1038B00008BD022008BD19B1C0F8141200207047DD
:1038C0000220704708B500F01FFF002008BD08B5B2
:1038D000D0F814320BB9022008BD1B6898470028A5
:1038E000F9D108BD08B5D0F814325B6898470020BC
:1038F00008BD38B5044600F50275284600F075FA93
:10390000012394F80812C4F8F431B4F80E32C4F864
:10391000F83101F01F03012B0ED007D3022B10D07A
:1039200001F08001204600F01BFF03E029462046FD
:1039300000F0E6F8002038BD2946204600F0DAF90C
:10394000F8E72946204600F0EDF9F3E738B50446DC
:10395000154611BBD0F8F431032B0FD1D0F80C3140
:10396000D0F8102193420BD99B1A9A4228BF1A46CD
:10397000C0F80C3192B2294600F08BFA002038BD15
:10398000D0F814321B6923B190F8FC21032A00D12E
:103990009847204600F085FAF0E7D0F814329B698A
:1039A000002BEBD090F8FC21032AE7D19847E5E7FC
:1039B00070B5134604460E4600293DD1D0F8F421D7
:1039C000022A0FD1C569026A954214D9AA1AC261A6
:1039D000194692B200F046FA33461A461946204676
:1039E00000F00AFF94F80032012B02D1002384F882
:1039F0000032002070BD8369B3FBF2F502FB153580
:103A000065B99A420AD8D0F8F821934206D22A46DC
:103A100000F028FAC4F8F8512B46DEE7D4F8143247
:103A2000DB682BB194F8FC21032A01D1204698478A
:103A3000204600F041FAD5E7D0F814325B69002B3C
:103A4000D7D090F8FC21032AD3D19847D1E738B5D5
:103A50000022044611464025402300F063FE2B4619
:103A6000C4F8105100228021204600F05BFE0123A3
:103A700084F8FC31D4F8183225622BB1D4F8143212
:103A800021795B6820469847002038BD01740020EA
:103A9000704790F8FC3180F8FD31042380F8FC3148
:103AA0000020704790F8FD3180F8FC31002070470D
:103AB00008B590F8FC21032A04D1D0F81432DB6950
:103AC00003B19847002008BD0020704700207047D0
:103AD0000020704708B5012280F8FC21D0F814229C
:103AE000017952689047002008BD10B58021044636
:103AF00000F036FE20460021BDE8104000F030BE48
:103B000037B54B7804460D46092B79D8DFE813F01A
:103B1000C900E5007800D90078006D000A0078003F
:103B2000B9008D004B881A0A013A062A68D8DFE8E6
:103B300002F0041C296767495200D0F810321B6854
:103B4000207C0DF106019847BDF80620002A67D0B9
:103B5000EB88002B64D09A4228BF1A46ADF80620A5
:103B60000146204600F071F95AE0027CD0F8143288
:103B700032B99B6A0DF10600984702234370E3E7D0
:103B8000DB6AF7E7DBB2052B3AD8DFE803F003077F
:103B90000B0F1317D0F810325B68D1E7D0F8103252
:103BA0009B68CDE7D0F81032DB68C9E7D0F8103257
:103BB0001B69C5E7D0F810325B69C1E7D0F8103255
:103BC0009B69BDE7037CDBB9D0F814320DF1060028
:103BD0005B6B9847B8E7037C93B9D0F814320DF1CA
:103BE00006001B6B98470723C8E78B8843B9CB882F
:103BF00033B990F8FC318D78032B05F07F0503D1A4
:103C00002046FFF772FF0BE080F8FE51294600F0D6
:103C1000D7FD204600F045F92DB1022384F8FC3190
:103C2000002003B030BD0123F8E78978304D012929
:103C30002970E5D890F8FC31022B0CD0032BDFD192
:103C4000B1B9022380F8FC314160FFF74BFE2046FA
:103C500000F027F9E4E70029F9D0012103234160AE
:103C600080F8FC312046FFF732FE0228EFD1C7E78B
:103C700041680129EBD0C9B2FFF734FE29786160B1
:103C8000F0E7CA88012ABBD190F8FC31022B03D09F
:103C9000032BB5D1011D64E70146002341F8083F1D
:103CA0005FE790F8FC31023B012BA9D80123C360E8
:103CB000D0F804320BB10323C360022204F10C01DB
:103CC0004FE74B88012BABD1C4F80432D4F814323F
:103CD00029469B6820469847B9E790F8FC31023B9B
:103CE000012B8DD84B88012B9AD10023ECE700BF24
:103CF0004D03002038B590F8FC31032B04460D46E7
:103D00000DD10B79012B0AD8D0F814329B68984753
:103D1000EB8813B9204600F0C4F8002038BDFFF747
:103D2000E4FEFAE770B50A788E8802F06002202A75
:103D300004460D46F3B205D1D0F814329B6898477B
:103D4000002070BD4A78012A1CD02AD3032AF7D15B
:103D500090F8FC21022A40D0032A02D0FFF7C5FECA
:103D6000EEE74A8822B95E0602D0194600F0F8FC58
:103D7000D4F8143229469B6820469847204600F024
:103D800090F8DDE790F8FC21022A26D0032AE5D13D
:103D90004A88002AD4D15906F0D0194600F0EEFC2A
:103DA000E6E790F8FC21022A17D0032AD6D103F0C7
:103DB0007F0516F0800F00EB0515194614BF14356A
:103DC00005F5827500F0E8FC68B101232B60022242
:103DD0002946204600F039F8B2E75A06B0D0194615
:103DE00000F0BEFCACE72860F1E70B7803704B787D
:103DF0004370CA788B7803EB022343804A790B79AE
:103E000003EB02238380CA798B7903EB0223C380FF
:103E1000704730B588B105462B1A15F8014BDBB257
:103E2000002CF9D15B00023313800B7003234B701D
:103E30000138022310F8015F05B930BD5A1CD2B217
:103E4000CD540233DBB28C54F4E710B51346022292
:103E5000C0F8F42183610A46C361002100F0BEFC72
:103E6000002010BD08B513460A46002100F0B6FC3C
:103E7000002008BD10B513460322C0F8F421C0F895
:103E800008310A46C0F80C31002100F0B5FC0020D2
:103E900010BD08B513460A46002100F0ADFC002015
:103EA00008BD08B50423C0F8F43100231A461946AA
:103EB00000F094FC002008BD08B50523C0F8F431DB
:103EC00000231A46194600F097FC002008BD0000A8
:103ED00070B5302298B00DEB0200002100F050FDCB
:103EE0001422002107A800F04BFD0021102203A896
:103EF00000F046FD0025214B01951A6C42F08052DE
:103F00001A641B6C03F080530193019B1C4B0295B8
:103F10001A6842F480421A601B6803F480430293DB
:103F2000029B4FF480330D934FF4800313930823C7
:103F300014934FF4A8730224012615930CA80723A9
:103F400017930C9612941694FEF704FC0F23079314
:103F50004FF4A0530A9305214FF4805307A80B9305
:103F600008940995FEF7A6FDC02303A803960493C1
:103F70000594FEF74FFE18B070BD00BF0038024038
:103F800000700040000000002DE9F0479CB00FAC2D
:103F9000FDF702F8FFF79CFF1422002120460025C0
:103FA00000F0EEFCB04B07951A6BB048DFF80483C5
:103FB00042F010021A631A6B02F010020792079A7D
:103FC00008951A6B42F004021A631A6B02F004029D
:103FD0000892089A09951A6B42F080021A631A6BCC
:103FE00002F080020992099A0A951A6B42F00102C6
:103FF0001A631A6B02F001020A920A9A0B951A6B65
:1040000042F002021A631A6B02F002020B920B9A40
:104010000C951A6B42F008021A631B6B03F008033D
:104020000C932A4608210C9BFDF73EF9012211460C
:104030008F48FDF739F92A464FF210018D48FDF7F8
:1040400033F901260827214688480F9710961195C5
:104050001295FDF749F8214685480F9610964FF0C6
:10406000050911951295FDF73FF80F972146022794
:104070007F48109711951295CDF84C90FDF734F8C4
:1040800021467D480F96CDF840801195FDF72CF81C
:104090000423214679480F9310951195FDF724F8D4
:1040A0004FF48063214675480F9310971195129530
:1040B000CDF84C90FDF718F84FF2100321466D48EB
:1040C0000F93109611951295FDF70EF820232146B7
:1040D00068480F9310951195FDF706F8214663483F
:1040E0000F97CDF840801195FCF7FEFF6448654BB3
:1040F00085604FF4007680E84800634B4361C560FB
:1041000006618561C5610562FDF78EFC5F48604A06
:1041100085604FF4827380E80C000A23C362C56097
:10412000056145618661C561056245628562FEF78C
:1041300037FE00F0CFF957485749584B856080E863
:104140000A004FF480430361C56045618561C56124
:104150000562FDF7ABF9524B1B88ADF818302B46C2
:1041600063550135322DFBD1C823009306AA0223E3
:104170008A214848FDF708FA0FF2DC09D9E90089DD
:1041800000274FF4FA70FCF733FFC82300930DAA01
:1041900006238A213F48FDF7CDFA002304939DF8BA
:1041A000393003939DF838309DF834A09DF8356080
:1041B00002939DF8373001939DF8363039490093CA
:1041C00052463346204601F00BF94FF4FA70FCF7E3
:1041D0000FFF3221204600F0BFF99DF837309DF8DF
:1041E000380000EB032080B2FCF79CF900222E4B34
:1041F000FCF7FEF942464B46FCF724FBFCF7D0FCEB
:10420000FCF7A2F9CDE9020106EB0A2080B2FCF727
:1042100089F913A3D3E90023FCF7EAF942464B4698
:10422000FCF710FB214B0022FCF72EF8FCF7B8FC42
:10423000FCF78AF97D1CEDB2CDE900013A461C4934
:10424000204601F0CDF80A2D08BF00253221204676
:1042500000F082F92F4694E700000000E0FFEF40F5
:104260000000000000E065400038024000100240FD
:1042700000080240000C024000000240000402401E
:104280000C040020003C004000770100B403002033
:10429000003001406003002000540040A08601006F
:1042A000786A00087A6A0008000059400080464099
:1042B000A46A0008000012107047000007B50E4BFA
:1042C000002100915A6C42F480425A645A6C02F404
:1042D00080420092009A01911A6C42F080521A6456
:1042E0001B6C03F0805301930720019BFCF794FEA5
:1042F00003B05DF804FB00BF0038024030B504464F
:1043000089B01422002103A800F03AFB2268144B64
:104310009A4223D1134C144800250195236B43F096
:1043200002032363236B03F002030193019BC02369
:10433000039312230493012305930323069303A9F4
:1043400004230793FCF7D0FE0295236C43F400137B
:104350002364236C03F400130293029B09B030BD65
:1043600000540040003802400004024070B504468A
:1043700088B01422002103A800F002FB22681D4B24
:104380009A4235D103F5FE33002400941A6C1A4882
:1043900042F400421A641A6C02F400420092009A3D
:1043A00001941A6B42F001021A631A6B02F00102C7
:1043B0000192019A02941A6B42F004021A631B6B79
:1043C00003F004030293029B02261023062503A98F
:1043D000039304960795FCF787FE4FF4A45303A9B3
:1043E000064803930496059406940795FCF77CFE13
:1043F00008B070BD003C00400000024000080240D0
:1044000010B5044688B01422002103A800F0B8FAC1
:104410002268134B9A4220D103F584330021019185
:104420005A6C104842F480525A645A6C02F480521A
:104430000192019A02911A6B42F001021A631B6BFE
:1044400003F001030293029BE023039302230493EE
:1044500003A905230793FCF747FE08B010BD00BF72
:1044600000300140000002407047FEE7FEE7FEE733
:10447000FEE7704770477047FCF7A8BD0148FDF79D
:1044800097BD00BF781600200F49D1F8883043F45B
:104490007003C1F888300D4B1A68002042F0010209
:1044A0001A6098601A6822F0847222F480321A60CE
:1044B000074A5A601A6822F480221A60D8604FF0C6
:1044C00000638B60704700BF00ED00E000380240E1
:1044D0001030002410B5094C094900222046FFF78E
:1044E000D5F908492046FFF7E6F920460649FFF7C7
:1044F0008EF92046BDE81040FFF7E4B954040020CF
:104500002C010020080000201C0100200020704722
:104510000020704710B5054C01462046FFF786F98C
:104520002046FFF7A0F9002010BD00BF5404002072
:1045300010B5064C064900222046FFF76FF90549E1
:104540002046FFF773F9002010BD00BF540400207F
:10455000780E00207806002010B5094CD4F81832E7
:10456000D3F814320A4643B901462046FFF756F9FC
:104570002046BDE81040FFF75FB9012010BD00BF25
:104580005404002010B50368B3F1A04F86B02DD1BC
:1045900000244FF4007301A9154801930294039479
:1045A000FCF7A2FD4FF4E05301930223029301A90B
:1045B0000A230F48059303940494FCF795FD0D4BD3
:1045C0005A6B42F080025A6300945A6C42F4804263
:1045D0005A645B6C03F480430093432022462146D7
:1045E000009BFCF72BFD4320FCF75CFD06B010BDE3
:1045F000000002400038024000F56F71D0F8EC0373
:10460000FFF777B91C2303FB0103D0F8EC03D3F8C1
:104610000422FFF79BB91C2303FB0103D0F8EC0332
:104620005A6CFFF7C5B9D0F8EC03FFF741BA10B5E3
:10463000C1680446003118BF0121D0F8EC03FFF730
:1046400025FAD4F8EC03BDE81040FFF700BA0000EB
:1046500010B50446D0F8EC03FFF71BFA2268D2F835
:10466000003E43F00103C2F8003E236A23B1034A2F
:10467000136943F00603136110BD00BF00ED00E0B5
:10468000D0F8EC03FFF70EBAD0F8EC03FFF71EBA30
:10469000D0F8EC03FFF718BAD0F8EC03FFF718BA1C
:1046A000D0F8EC03FFF716BA08B5027842BB154BF9
:1046B0000421C3F8EC03C0F820324FF0A04083E897
:1046C00003000221D9609961184601211A615A61DB
:1046D000DA611A625A62D9621A63FDF7E7FB08B120
:1046E000FFF7EAFD80210748FEF72FF8402200215E
:1046F0000448FEF709F8802201210248FEF704F879
:10470000002008BD7816002008B5D0F82002FDF77B
:1047100039FC03289ABF024B185C022008BD00BF79
:10472000E16A000810B51C46D0F820021346224664
:10473000FDF7FCFE03289ABF014B185C022010BD58
:10474000E16A000808B5D0F82002FDF71DFF032834
:104750009ABF024B185C022008BD00BFE16A000846
:1047600008B5D0F82002FDF77EFF03289ABF024B60
:10477000185C022008BD00BFE16A000808B5D0F847
:104780002002FDF79CFF03289ABF024B185C022011
:1047900008BD00BFE16A000811F0800FD0F8203298
:1047A0004FF01C021BBF01F07F0102FB013102FB35
:1047B000013191F83A0008BF91F8FA017047000002
:1047C00008B5D0F82002FDF79FFE03289ABF024BE0
:1047D000185C022008BD00BFE16A000808B5D0F8E7
:1047E0002002FDF720FF03289ABF024B185C02202D
:1047F00008BD00BFE16A000808B5D0F82002FDF747
:10480000E6FE03289ABF024B185C022008BD00BFD9
:10481000E16A000808B5D0F82002FDF7FCFE08BDEB
:1048200012230B80004870474801002004230B80AE
:10483000004870475C01002010B5044C04480A464B
:104840002146FFF7E6FA204610BD00BF681A002097
:10485000FE6A000810B5044C04480A462146FFF7DA
:10486000D8FA204610BD00BF681A0020116B00085E
:1048700010B5044C04480A462146FFF7CAFA204600
:1048800010BD00BF681A0020276B000810B5044C4B
:1048900004480A462146FFF7BCFA204610BD00BF77
:1048A000681A0020E56A000810B5044C04480A465E
:1048B0002146FFF7AEFA204610BD00BF681A00205F
:1048C000F06A0008DFF834D0002103E00C4B5B589D
:1048D000435004310B480C4B42189A42F6D30B4A12
:1048E00002E0002342F8043B094B9A42F9D3FFF758
:1048F000CBFD00F011F8FFF747FB704700000220E6
:10490000A06D0008000000203003002030030020CC
:104910006C1C0020FEE7000070B50D4E0D4CA41B72
:10492000A4100025A54209D10B4E0C4C02F096F8BC
:10493000A41BA4100025A54205D170BD56F8253052
:1049400098470135EEE756F8253098470135F2E7EC
:10495000986D0008986D0008986D00089C6D00081F
:10496000024B0146186800F061B800BF60010020EA
:10497000024B0146186800F00BB800BF6001002030
:1049800002440346934200D1704703F8011BF9E744
:1049900038B50546002945D051F8043C0C1F002BC2
:1049A000B8BFE41801F0B3FB1F4A1368104633B9CF
:1049B000636014602846BDE8384001F0A9BBA342FB
:1049C0000CD921686218934204BF1A685B6863605F
:1049D00004BF521822600460ECE713465A680AB11B
:1049E000A242FAD919685818A0420BD12068014494
:1049F000581882421960DDD1106852685A6001442B
:104A00001960D7E702D90C232B60D3E7206821185F
:104A10008A4204BF11685268626004BF09182160AD
:104A20005C60C7E738BD00BF5003002070B5CD1CE7
:104A300025F0030508350C2D38BF0C25002D064642
:104A400001DBA94203D90C233360002070BD01F0C3
:104A50005EFB234A1468214691B9224C23681BB996
:104A6000304600F0ADFC20602946304600F0A8FC3E
:104A7000431C26D10C233360304601F049FBE4E7A8
:104A80000B685B1B1AD40B2B0FD90B60CD50CC18C5
:104A9000304601F03DFB04F10B00231D20F0070020
:104AA000C31A1BD05A42E25070BD8C420DBF6368DE
:104AB0004B686360136018BF0C46E9E70C46496811
:104AC000CAE7C41C24F00304A04205D0211A3046D2
:104AD00000F076FC0130CDD02560D9E770BD00BF75
:104AE00050030020540300202DE9FF4755EC104BE4
:104AF0000D9FDDF830A0002D0E4691461946B8BF37
:104B000022462B4627F02007BBBF05F100431D4678
:104B100000232D23B8BF1446462F0B7004D0452F19
:104B200000D10136022100E0032103AB019302AB67
:104B300000933246534645EC104B00F001FD472FE1
:104B4000804602D119F0010F26D0462F08EB060946
:104B500011D198F80030302B0AD1002200232046D2
:104B60002946FBF7ADFF18B9C6F10106CAF8006087
:104B7000DAF8003099440022002320462946FBF74A
:104B80009FFF38B93022039B994505D9591C0391E1
:104B90001A70F8E7CDF80C90039B0E9AA3EB08036C
:104BA0004046136004B0BDE8F087F7B5034600291E
:104BB000B8BF494203F8022BB4BF2D222B2209298A
:104BC000427020DD0DF1070217460A2691FBF6F52B
:104BD00006FB15113031092D02F8011C02F1FF34DA
:104BE000294609DC3031023A04F8011CBA421C465D
:104BF00004D3201A03B0F0BD2246E7E712F8011BE8
:104C000003F8011BF2E730221C46114404F8022B82
:104C10005970EEE72DE9F04F8DB00C46DDF8588065
:104C200016461F46054601F059FA036804931846D4
:104C3000FBF7CEFA00230A93D8F80030059007332B
:104C400023F0070303F1080294F818A0D4F800B089
:104C5000C8F80020D3E90023C4E91223D4E912895B
:104C600029F000430793CDF818804FF0FF32A54B91
:104C7000DDE90601FBF756FF002840F0FB814FF00D
:104C8000FF32A04BDDE90601FBF72EFF002840F0C4
:104C9000F1810022002340464946FBF71BFF10B17B
:104CA0002D2384F84330984B984ABAF1470F8CBFB4
:104CB0009046984603232BF00402236122604FF0B4
:104CC0000009009733460BAA2146284600F0E2F976
:104CD000013040F093804FF0FF300DB0BDE8F08F11
:104CE00061684B1C4BF480623FD106236360002354
:104CF00003930AAB029309AB009349EC108B0DF1BF
:104D000023032260CDF804A061682846FFF7ECFE7B
:104D10000AF0DF03472B804609D1099BD81C02DB30
:104D20006268934257DDAAF1020A5FFA8AFABAF181
:104D3000650F099934D80139524604F150000991A0
:104D4000FFF733FF0A9A8318012A8146236102DCA8
:104D50002268D10701D5013323619DF82330002B50
:104D6000AFD02D2384F84330ABE7BAF1670F02D000
:104D7000BAF1470FBBD189B1002303930AAB029369
:104D800009AB009349EC108B2260CDF804A00DF123
:104D900023032846FFF7A8FE8046BEE70123A5E7C8
:104DA000BAF1660F19D1002963680CDD216113B9CE
:104DB0002268D20702D501330B442361099BA36506
:104DC0004FF00009C9E713B92268D00701D50233B3
:104DD000F3E70123F1E74FF0670A099B0A9A934230
:104DE00005DB22682361D107E8D50133E5E7002B15
:104DF000D4BFC3F1020301231344DEE723685A053D
:104E000007D42369424631462846B84701302BD1A2
:104E100061E7BAF1650F40F2E28000220023D4E995
:104E20001201FBF74DFE00283CD00123384A3146E1
:104E30002846B84701303FF44EAF0A9B099A9A4280
:104E400002DB2368D8070FD5059B049A3146284614
:104E5000B84701303FF43FAF4FF0000804F11A09A2
:104E60000A9B013B984512DB23689B0709D54FF04D
:104E7000000804F11909E3680B9A9B1A9845C0F2DF
:104E8000EE80E0680B9B9842B8BF184625E70123E7
:104E90004A4631462846B84701303FF41CAF08F176
:104EA0000108DDE7099B002B34DC0123184A314659
:104EB0002846B84701303FF40EAF099B23B90A9B3F
:104EC00013B92368D907CFD5059B049A31462846E4
:104ED000B84701303FF4FFAE4FF0000904F11A0A61
:104EE000099B5B42994501DB0A9B8BE701235246F4
:104EF00031462846B84701303FF4EDAE09F10109CB
:104F0000EEE700BFFFFFEF7F346B0008386B00084F
:104F1000446B00080A9AA36D9A42A8BF1A46002A59
:104F2000914638DC04F11A034FF0000B29EAE979C5
:104F30000693D4F858A0AAEB09039B4533DB0A9BE0
:104F4000099A9A423ADB2368DA0737D40A9B09990F
:104F5000A3EB0A02A3EB01099145A8BF9146B9F161
:104F6000000F33DC4FF0000829EAE97904F11A0A4E
:104F7000099A0A9B9B1AA3EB09039845BFF674AFE5
:104F80000123524631462846B84701303FF4A3AECC
:104F900008F10108ECE71346314642462846B84777
:104FA0000130BFD197E60123069A31462846B8471B
:104FB00001303FF490AE0BF1010BBAE7059B049A68
:104FC00031462846B8470130C0D184E64B4608EB4D
:104FD0000A0231462846B8470130C3D17BE60A9A17
:104FE000012A01DCDB0737D501234246314628463A
:104FF000B84701303FF46FAE059B049A314628460E
:10500000B84701303FF467AE00220023D4E9120113
:10501000FBF756FD58B14FF0000804F11A0A0A9B3D
:10502000013B98450DDB4B4604F15002EBE60A9B31
:1050300008F10102013B31462846B8470130F2D160
:1050400049E60123524631462846B84701303FF42D
:1050500042AE08F10108E2E701234246EBE70123F3
:105060004A4631462846B84701303FF434AE08F18D
:10507000010800E742464B4640464946FBF752FDD1
:1050800000283FF42DAE014B014A0EE63C6B0008B0
:10509000406B00082DE9F04791461F468A680B696E
:1050A000DDF820809342B8BF1346C9F8003091F86C
:1050B000432006460C4612B10133C9F8003023687C
:1050C000990642BFD9F800300233C9F8003025688C
:1050D00015F0060507D104F1190AE368D9F8002094
:1050E0009B1A9D4229DB94F843302268003318BF95
:1050F000012392062ED404F1430239463046C047BC
:10510000013021D02368E568D9F8002003F00603B8
:10511000042B08BFAD1AA36822690CBF25EAE57508
:1051200000259342C4BF9B1AED184FF000091A34B2
:105130004D451BD10020BDE8F0870123524639467A
:105140003046C047013003D14FF0FF30BDE8F08753
:105150000135C2E7E1185A1C302081F8430022448F
:1051600094F8451082F843100233C4E70123224625
:1051700039463046C0470130E6D009F10109D7E78A
:105180002DE9F04317460A7E85B06E2A98460646FA
:105190000C460C9B01F1430E00F0BC801AD8632A28
:1051A0002ED00AD8002A00F0C880582A00F08A8041
:1051B00004F1420584F842202AE0642A01D0692AD9
:1051C000F6D121681A6811F0800F23D0111D1960E3
:1051D000136827E0732A00F0B48008D86F2A2AD019
:1051E000702AE5D10A6842F020020A6003E0752ABD
:1051F00021D0782ADCD1782284F845206E4964E0F9
:105200001A6801F14205111D1960136884F84230D3
:105210000123A3E011F0400F02F104011960D7D07F
:10522000B2F90030002B03DA2D225B4284F84320D0
:1052300062490A2217E02068196810F0800F03D035
:10524000081D18600B6806E010F0400F01F1040023
:105250001860F7D00B8859496F2A14BF0A22082218
:10526000002084F843006568A560002DC0F29C8092
:10527000206820F004002060002B3FD1002D40F07A
:1052800095807546082A0BD12368DA0708D523696B
:1052900062689A42DEBF302305F8013C05F1FF3514
:1052A000AEEB05032361CDF800803B4603AA2146FF
:1052B0003046FFF7EFFE013055D14FF0FF3005B01B
:1052C000BDE8F08381F845203C492268186812F057
:1052D000800F00F104051D6001D0036802E055064F
:1052E000FBD50388D00744BF42F0200222601BB9DF
:1052F000226822F0200222601022B1E77546B3FB3B
:10530000F2F002FB1033CB5C05F8013D03460028A8
:10531000F5D1B7E708681A68496910F0800F04D022
:10532000101D18601368196007E010F0400F02F1BB
:10533000040018601368F6D01980002323617546B5
:10534000B1E71A68111D19601568626800212846C6
:10535000FAF746FF08B1401B6060636823610023D1
:1053600084F843309FE723692A4639463046C047D0
:105370000130A2D023689B0707D5002504F1190945
:10538000E368039A9B1A9D4205DBE068039B984201
:10539000B8BF184693E701234A4639463046C0470E
:1053A00001308AD00135EBE7002BA7D10B7884F8C8
:1053B000423004F1420565E7576B0008466B000870
:1053C00038B5064C002305460846236001F038FB3B
:1053D000431C02D1236803B12B6038BD681C002038
:1053E0000EB400B59CB04FF402711DABADF81410B3
:1053F000029006906FF000410A48049107914FF621
:10540000FF7153F8042BADF816100068019302A940
:1054100001F0BAF9029B00221A701CB05DF804EB8F
:1054200003B07047600100202DE9F74F03690C6954
:105430009C42804600F38280013C01F114074FEA50
:10544000840E00F1140657F8245056F8240006EB99
:105450000E03013507EB0E090193B0FBF5F595B38B
:105460004FF0000A3846B446D34650F8042B93B2A6
:1054700005FB03A34FEA134A9BB2ABEB0303120CE9
:10548000BCF800B005FB02A213FA8BF34FEA124AF4
:105490001FFA82FBDCF80020CBEB124202EB234226
:1054A0009BB243EA024381454FEA224B4CF8043B4E
:1054B000DBD256F80E3033B9019B043B9E421A46AC
:1054C00030D3C8F81040404601F02DF8002825DB05
:1054D000013530464FF0000E57F8042BD0F800C0CD
:1054E00093B2AEEB0303120C13FA8CF3C2EB1C4223
:1054F00002EB23429BB243EA0243B9454FEA224EF4
:1055000040F8043BE8D256F8242006EB84032AB97D
:10551000043B9E421A460BD3C8F81040284603B0FD
:10552000BDE8F08F1268043B002ACAD1013CC5E7F0
:105530001268043B002AEFD1013CEAE70020EEE7C5
:105540002DE9F04F57EC106B97B0CDE90067466A34
:10555000079104460A920F93209D3EB91020FFF751
:10556000FFF96062466086600660C660636A19681B
:1055700051B15A684A60012393408B60204600F085
:10558000FCFD636A00221A60019B002BBFBF012350
:105590002B60019B23F00043B2BF019300232B60DB
:1055A000DDF80480A84B33EA08031BD10F9A42F2BE
:1055B0000F731360009B23B9C8F31300002800F099
:1055C0007885219B53B9A14B21E0A14B029308336D
:1055D000219A1360029817B0BDE8F08F9B4B02939D
:1055E0000333F5E7DDE90067002200233046394642
:1055F000FBF766FA814660B10F9A01231360219B85
:10560000002B00F05385934B219A1360013B0293CA
:10561000E0E714AA15A947EC106B204600F0FBFF49
:10562000C8F30A558246002D7ED0C7F3130343F01A
:105630007F51304641F44011A5F2FF35CDF8489036
:105640000022854BFAF720FE79A3D3E90023FAF76D
:10565000CFFF79A3D3E90023FAF718FE06462846C0
:105660000F46FAF75FFF76A3D3E90023FAF7C0FFEE
:1056700002460B4630463946FAF708FE06460F4604
:10568000FBF766FA00228346002330463946FBF7D3
:1056900021FA58B15846FAF745FF02460B46304604
:1056A0003946FBF70DFA08B90BF1FF3BBBF1160FBA
:1056B00059D86A4901EBCB01DDE90023D1E90001AA
:1056C000FBF726FA002850D00BF1FF3B00230E9386
:1056D000149B5D1B6B1E069345BFC5F1010305932B
:1056E000002300234CBF06930593BBF1000F3EDB64
:1056F000069BCDF82CB05B44069300230893079BD0
:10570000092B00F2AF80052BC4BF043B0793079B16
:10571000A3F10203CCBF00260126032B00F2AE80CA
:10572000DFE803F082842F77159B149D1D4405F25A
:105730003243202B11DD009A05F21240C3F14003E1
:1057400022FA00F008FA03F31843FAF7DBFE01230C
:10575000A1F1F871013D129372E7C3F12000009BA3
:1057600003FA00F0F1E70123B1E70E90B0E7059BE3
:10577000A3EB0B030593CBF10003089300230B93DA
:10578000BDE7012309930A9B002B7ADD0493039361
:10579000656A00226A60042101F114029A4275D9F7
:1057A0006968204600F0B5FC636A28601B680293B4
:1057B000039B0E2B00F2E580002E00F0E2809DEDB1
:1057C000007BBBF1000F8DED0C7B74DD234A0BF0E9
:1057D0000F034FEA2B1602EBC303F006D3E900894F
:1057E00059D51F4B51EC170BD3E90823FBF72AF8C7
:1057F000CDE9000106F00F060325194F002E4CD10C
:1058000042464B46DDE90001FBF71CF8CDE90001FB
:105810006AE0012309930A9B5B4404930133012B43
:105820000393B8BF0123B3E70023ABE70023F1E7FD
:1058300061436F63A787D23FB3C8608B288AC63F96
:10584000FB799F501344D33F0000F07F716B000839
:10585000686B0008456B00080000F83FA06B00086B
:10586000786B000801260023079309964FF0FF3359
:1058700004930393002212230A9289E701230993D8
:10588000F4E70123049303931A46F5E76A680132AB
:105890006A60490080E70225AFE7F10708D5404676
:1058A0004946D7E90023FAF7A3FE01358046894629
:1058B00076100837A2E700F09D80CBF100069F4BE1
:1058C0009F4F06F00F0203EBC203D3E90023DDE98B
:1058D0000C01FAF78DFECDE90001361100230225F7
:1058E000002E7CD1002B91D10E9B002B00F08480E8
:1058F000DDE900890022934B40464946FBF7EAF870
:10590000002879D0039B002B76D0049B002B34DD3C
:1059100000228D4B40464946FAF76AFECDE9000168
:10592000049E0BF1FF3701352846FAF7FBFDDDE950
:105930000023FAF75DFE0022844BFAF7A7FC8046AD
:10594000A1F15079002E5AD10022814BDDE90001EE
:10595000FAF79AFC42464B46CDE90001FBF7D8F82E
:10596000002840F09B82424609F10043DDE9000136
:10597000FBF7B0F8002840F08F82DDE90C23CDE979
:105980000023159B002BC0F25081BBF10E0F00F3DA
:105990004C816A4B03EBCB03D3E900890A9B002BB4
:1059A00080F2DA80039B002B00F3D68040F07382F4
:1059B0000022674B40464946FAF71AFEDDE900230C
:1059C000FBF79CF8039E3746002840F04A82029B72
:1059D000029A5D1C312313700BF1010B45E2F207B3
:1059E00005D5D7E90023FAF703FE01350123761028
:1059F000083775E7022577E75F46039E94E7029A2A
:105A00004E4B32441392099A711E002A48D003EB80
:105A1000C103D3E9002300204E49FAF713FF4246A1
:105A20004B46FAF731FC029D80468946DDE90001CC
:105A3000FBF78EF80646FAF775FD02460B46DDE9E0
:105A40000001FAF721FC303605F8016B42464B465F
:105A5000CDE90001FBF73EF8002865D1DDE9002320
:105A600000203849FAF710FC42464B46FBF732F863
:105A7000002840F0BA80139B9D423FF47EAF002285
:105A8000314B40464946FAF7B3FD0022804689462D
:105A90002D4BDDE90001FAF7ABFDCDE90001C5E7CB
:105AA00003EBC10142464B46D1E90001FAF7A0FDE4
:105AB000CDE91001029DDDE90001FBF749F806463A
:105AC000FAF730FD303602460B46DDE90001FAF701
:105AD000DBFB05F8016B139BAB42804689464FF018
